:0400000080EF00F09D
:04000800A3EF00F072
:04001800A4EF00F061
:100100000F01119D119F0F01888C888E8A6A206AC9
:10011000216A010E226E8DEF00F08DAC95EF00F09C
:100120008DAE95EF00F08DEF00F0010F0EE20000B4
:1001300000000000000000000000000000000000BF
:1001400000008DEF00F0100010002150010F216E13
:1001500002E28DEF00F022508DAC22428DAE22469D
:0801600022C085FF8DEF00F0C5
:020000040030CA
:0C0000008CFFFFFF9FFFFFFFFFFFFFFFD3
:00000001FF
