:0400000080EF00F09D
:04000800BEEF00F057
:04001800CCEF00F039
:100100008CEC00F098EC00F0A2EC00F094EC00F025
:10011000ACEC00F0BCEF00F00F018A6A0F01010E99
:10012000856E0F0189981200190E216E206A120047
:100130000F01900ED56E0F014F0ED66E0F01FF0E00
:10014000D46E12000F01D90EBD6E0F01010EBF6EED
:100150000F01F90EBC6E12000E01020EBE6F0E01F1
:10016000000EBA6F0E01020EC66F0E01200EC26F96
:100170000F01E00EF26E1200BCEF00F00E01CEA3F4
:10018000CBEF00F0CE93202A20502162CBEF00F07D
:100190000F018546206A10000E01CAABD8EF00F0AF
:1001A000CA9B0F01FF0ED46E130ED36E0F0184781D
:0201B00010003D
:020000040030CA
:0C0000008CFFFFFF9FFFFFFFFFFFFFFFD3
:00000001FF
